:020000040800F2
:1000000090090020CD000008590B0008550B00088E
:1000100000000000000000000000000000000000E0
:100020000000000000000000000000005B0D000860
:100030000000000000000000D50B00085911000866
:10004000DF000008DF000008DF000008DF00000814
:10005000DF000008310B0008DF000008DF000008A7
:1000600000000000DF000008DF000008DF000008DB
:10007000DF000008DF000008DF000008DF000008E4
:10008000DD1100080000000000000000DF00000893
:10009000DF000008DF000008DF000008DF000008C4
:1000A000DF000008DF000008DF0000080913000877
:1000B000DF000008DF0000080348854600F018FB59
:1000C00000480047993A00089009002004488047FA
:1000D00004480047FEE7FEE7FEE7FEE7FEE7FEE72F
:1000E00061110008B900000830B50B460146002038
:1000F0002022012409E00D46D5409D4205D31D462E
:100100009540491B2546954040191546521E002D25
:10011000F1DC30BD70B500242546002801DA012449
:100120004042002901DA01254942FFF7DDFFAC42D8
:1001300000D04042002C00D0494270BD03460B4322
:100140009B0703D009E008C9121F08C0042AFAD28D
:1001500003E00B780370401C491C521EF9D2704713
:10016000D2B201E00270401C491EFBD2704700224F
:10017000F6E710B513460A4604461946FFF7F0FFA6
:10018000204610BDF0B507460846584087B0C00F5E
:10019000049048000E46590040084908BC1A88419E
:1001A00005D2384631461E4617460B4602465800D1
:1001B000400810434CD0300D039040055900400DCD
:1001C000490D0590401A0290402872DA1803012167
:1001D000000B09050843019004980092002805D0FF
:1001E00001995242002088410092019002984021DA
:1001F0000A1A0199009800F03BF905460C466B4637
:1002000007CB00F056F9C0197141039A0E0D002377
:10021000D71756401A467A40164344D0049A002A0B
:100220002DD0029A012A039A15DC1205C01A9141B9
:1002300001263605001C7141D20F059ED20700939E
:10024000019202962A46234600F053F907B0F0BD0A
:1002500038463146FAE71605224A0F46B218C01A48
:10026000B74101210905001C4F4100187F4111468B
:1002700018187941E20F10436D19644113E0E20749
:100280006D0815436408C2071443039A012612053A
:10029000C01A91413605001C7141CE074008304319
:1002A0004908C01851412A46234600F015F9CDE708
:1002B000FFE7049801224000C117121A00238B4166
:1002C00004983146C417381AA141EEE730B401242E
:1002D000E407634030BC55E730B40124E4076140D3
:1002E00030BC4FE70000E0FFF0B51FB488B00B99B9
:1002F0000998002448400999C00F4900490809910C
:10030000C0070B990090490049080B91099908987A
:10031000A64608431CD00B990A98084318D00998A0
:1003200001244000420D4800410D099824050003B6
:10033000000B204309900B980003000B20430B9007
:1003400050181C494018002201901446104605E040
:10035000002001460DB0F0BD032801DA034600E09D
:1003600003239C46C11A0AAE0AE05F0008ADED5BAC
:100370004F00F75B7D430027AA187C41491C5B1E98
:100380006145F2DD410004AB5A522104120C0A43CC
:10039000240C401C0828DFDB01980290009970466D
:1003A00001910090059B049A0799069800F0A1F826
:1003B000D0E700000DFCFFFF0EB5054902910021BA
:1003C00000910A460B46019100F093F803B000BD7E
:1003D000330400004A0009030123090B1B051943DC
:1003E000094B10B5520D9A4201DA002010BD064BA0
:1003F00034339A4203DC9A1A00F04AF810BD0349DC
:100400005118884010BD0000FF030000CDFBFFFF26
:10041000F0B51FB40646002082B005464024019185
:1004200000901BE0019922460F46304600F030F85C
:10043000049A059B801A994110D31046194622460A
:1004400000F016F8361A8F4101972246012000214C
:10045000009F00F00DF838184D4100902046641EB2
:100460000028DFDC019B00982946324607B0F0BD2A
:1004700010B5202A04DB0146203A9140002010BD2F
:10048000914020239C1A0346E3401943904010BD3D
:1004900010B5202A04DB0846203AD040002110BDC8
:1004A0000B46D340D0402024A21A9140084319465D
:1004B00010BD10B5202A06DBCB170846203A1041A4
:1004C000C1170B4306E00B461341D0402024A21A6B
:1004D00091400843194610BD10B5002B08DA0024DE
:1004E000401C614192185B411A4301D14008400011
:1004F00010BDF0B51FB482B005460C0003D008460D
:1005000001F02CF802E001F029F8203002460090BA
:1005100021462846FFF7ACFF049B059A04460F4688
:1005200018431143084314D0184610431BD00098B9
:1005300040210A1A18460599FFF7AAFF05460E46FC
:10054000009A05990498FFF793FF084305D001200E
:1005500004E02046394607B0F0BD0020C11705432E
:100560000E432C43374300990E986305401A7905D2
:10057000E40A00220C43FD0A0A3002D5002001469D
:10058000E9E70105101969410C9C0D9D00196941AD
:10059000FFF7A2FFDFE70000F0B50C465C4085B036
:1005A000E40FE40703944C000026640859009446C5
:1005B000490802460296224321D062460A431ED0D1
:1005C0006200570D4A000E032303550D0124024615
:1005D0002C492405781B1B0B360B4018234326435C
:1005E000614600901C46501AB44103D30098401C49
:1005F000009002E0921800985B41002803DA002086
:10060000014605B0F0BD00200121090507468646D8
:1006100011E064461D46141BB54106D36546521BC6
:10062000B341744607430C43A646CD07400849082A
:10063000284392185B4105460D43EAD11046184302
:1006400013D06046194650407140084306D06046BA
:10065000101AB34106D20122002306E00022012332
:10066000DB0702E00122D2435310009874460105D3
:10067000381C6141029C039D00196941FFF72CFF62
:10068000BFE70000FD0300004A0009030123090B36
:100690001B0519430A4B10B5520D9A4202DA00208D
:1006A000014610BD064B34339A4203DC9A1AFFF719
:1006B000EFFE10BD034BD218FFF7DAFE10BD0000AD
:1006C000FF030000CDFBFFFF10B5002904DB012470
:1006D000E40740428C412146002B04DB1C460123E9
:1006E000DB075242A341994200D1904210BD000065
:1006F000064C0125064E05E0E36807CC2B430C3C75
:1007000098471034B442F7D3FFF7DAFC00570008DB
:100710002057000870B58C180578401C6B075B0FDC
:1007200001D10378401C2A1106D10278401C03E055
:1007300006780E70401C491C5B1EF9D12B0705D4AE
:100740000023521E0DD40B70491CFAE70378401C9D
:10075000CB1A921C03E01D780D70491C5B1C521EC5
:10076000F9D5A142D8D3002070BD0000F0B5A5B0E6
:100770000020249004202390002600250027002438
:1007800000200290401E019000200090802103A8CC
:10079000FFF7EDFC23AA102124A802F08DFB29A06D
:1007A000249900F0CBFE012189022498884203D3CA
:1007B00089012498884207D92EA000F0BFFE37A0F7
:1007C00000F0BCFE25B0F0BD2498C0090090009850
:1007D000401C009000262FE080202390B9B223AA6D
:1007E00003A802F069FB002522E003A841190422B6
:1007F00002A8FFF7A3FC33480078002816D1012196
:100800008902314802F0F4FF0121C9022E4802F0AA
:10081000F1FF210B0198814202D0204600F0D6FD65
:10082000224603210120029B00F008F9241D2D1D02
:10083000802DDAD38037761C00988642CCD300BF57
:10084000C0E70000626567696E20646F776E6C6F49
:10085000616420282048656170204D656D6F727954
:10086000787878783A2030782530385820290D0A61
:1008700000000000455252212045435238363630A0
:1008800020636F646520646F776E6C6F61642074A1
:10089000696D65206F75740D0A0000002A2A2A2AE6
:1008A0002A2A4552524F52212020204552524F525F
:1008B0002120204552524F52212A2A2A2A2A2A0D23
:1008C0000A000000440000200004004810B504465F
:1008D000012C02D0022C0AD104E00649012000F0CC
:1008E0003DFA04E00349022000F038FA00BF00BFDF
:1008F00010BD000064010020F8B506460C461746FE
:100900001D46012E02D0022E33D116E00121C9026C
:10091000194802F06FFF012C02D0384600F056FD56
:10092000002C01D0062000E00320014600233A46B7
:10093000184600F083F828601BE0012189020E4868
:1009400002F058FF0121C9020B4802F053FF012CAD
:1009500002D0384600F03AFD002C01D0062000E01D
:100960000320014600233A46184600F067F8286045
:1009700000BF00BFF8BD00000004004870B5054688
:100980000C46002100202B4E30607060032C24D0D8
:10099000062C4DD12946C90730460068CE0FF60710
:1009A0003043244E30602146090730460068072650
:1009B00036070E4030431F4E306011460904304662
:1009C00000681D4E0E4030431A4E306099B23046DA
:1009D000006808433060012070BD2946C9071548EA
:1009E0000068CE0FF6073043124E306021460907EB
:1009F00030460068072636070E4030430D4E306003
:100A000011460904304600680B4E0E403043094E33
:100A10003060190C304600680843306019043046D5
:100A200040680E0C36043043024E70600220D3E75B
:100A30000020D1E7540500200000FF0FFEB5054659
:100A40000C4616461F460020009001900098400971
:100A50004001002D05D1062C01D10F2102E01F21FC
:100A600000E00021C906C90E084300903F2149015A
:100A700000988843062C01D11F2100E02F21490155
:100A80003F225201114008430090B2B23B4621463A
:100A90002846FFF773FF0548006801900348406847
:100AA0000290684600F097F8FEBD00005405002053
:100AB000F8B505460C4616461F46012D02D0022DFC
:100AC00031D115E00121C902184802F093FE012C32
:100AD00002D0304600F07AFC002C01D0062000E065
:100AE000032001463B4632460120FFF7A7FF1AE0EC
:100AF000012189020D4802F07DFE0121C9020B4847
:100B000002F078FE012C02D0304600F05FFC002C91
:100B100001D0062000E0032001463B46324601207A
:100B2000FFF78CFF00BF00BFF8BD000000040048C5
:100B300010B5012002F016FD002807D00448007807
:100B4000401C03490870012002F006FD10BD0000A2
:100B50000E00002000BFFEE77047000010B500281F
:100B600019DA1A4A03071B0F083B9B089B00D2584F
:100B70008307DC0EFF23A3409A438B071B0E8407D9
:100B8000E40EA3401A43114B0407240F083CA408A9
:100B9000A4001A5118E00E4A03231B02D21883083E
:100BA0009B00D2588307DC0EFF23A3409A438B0798
:100BB0001B0E8407E40EA3401A43054B03242402B2
:100BC0001B198408A4001A5110BD00001CED00E0A0
:100BD00000E100E0704770B50546002600241021B2
:100BE0000920C00602F004FE00BF00BF00BF00BF26
:100BF00028884005800E1F2834D100242FE02021B2
:100C00000920C00602F0F6FD0121C907E14068682D
:100C10000840002805D080210920C00602F0EAFD26
:100C200004E080210920C00602F0E2FD102C0BDB5D
:100C300040210920C00602F08BFE002804D01F20AE
:100C4000011B01208840064300BF00BF202109206E
:100C5000C00602F0CDFD00BF00BF601CC4B2202C56
:100C6000CDDB65E000242FE020210920C00602F042
:100C7000C1FD0121C907E14068680840002805D08E
:100C800080210920C00602F0B5FD04E08021092082
:100C9000C00602F0ADFD102C0BDB40210920C00680
:100CA00002F056FE002804D02F20011B01208840AE
:100CB000064300BF00BF20210920C00602F098FDB6
:100CC00000BF00BF601CC4B2202CCDDB00242DE08F
:100CD00020210920C00602F08DFD0121C907E14055
:100CE000A8680840002805D080210920C00602F02D
:100CF00081FD04E080210920C00602F079FD402139
:100D00000920C00602F024FE002804D00F20011B99
:100D100001208840064300BF00BF20210920C006F3
:100D200002F066FD00BF00BF601CC4B2102CCFDB18
:100D300010210920C00602F05DFD20210920C00617
:100D400002F056FD80210920C00602F051FD00BFCF
:100D500000BF00BF00BF304670BD7047F3B583B021
:100D60000D4600240398012802D002286ED136E0F7
:100D700000242EE020014019C06800902001401995
:100D80000821411802900A7813464A781202134348
:100D90008A7812041343C97809060B4307793A4647
:100DA00047793F023A4387793F043A43C1790906BC
:100DB0000A430778394647783F02394387783F042A
:100DC0003943C07800060143012000F027FB0646A6
:100DD000641C200140194078FF28CBD136E0002464
:100DE0002EE020014019C068009020014019082120
:100DF000411802900A7813464A78120213438A78FF
:100E000012041343C97809060B4307793A46477918
:100E10003F023A4387793F043A43C17909060A43BE
:100E20000778394647783F02394387783F0439438A
:100E3000C07800060143022000F0F0FA0646641C68
:100E4000200140194078FF28CBD100BF00BF3046B9
:100E500005B0F0BD11201D4908601D4840681C49BF
:100E60004860084640684860084640687B21C903DE
:100E7000884317494860084640680521C90408436B
:100E800013494860084600680121090608431049D3
:100E9000086000BF0E48006801214906084000288C
:100EA000F8D00B484068800880000949486008462F
:100EB0004068022108430649486000BF0448406872
:100EC0000C2108400828F9D170470000002002409A
:100ED00000100240F0B587B00027002006900024E3
:100EE00000BF18217848FFF742F918217748FFF72B
:100EF0003EF90121162004F0BFF801207449087062
:100F00007448007802F0C4F973A000F017FB7B4826
:100F10008268C1681046FFF75DFA054602F0F2FBF1
:100F2000002800D001270121042004F0A5F80021A9
:100F3000042004F0A1F800BF01218902704802F0EA
:100F400007FD0028F8D0684603F02EFE18226946F7
:100F50005E48FFF7F3F85D48006932282DD901217A
:100F6000042004F089F80021042004F085F8634887
:100F70008168C068554A9160D060182253495F4823
:100F8000FFF7DCF85D480178132004F075F87D2048
:100F9000000102F05BFA0121062004F06DF85748C9
:100FA00000785649096900910190544885682A469D
:100FB000C36854A000F0C2FA83E05DA000F0BEFA5E
:100FC0006348046845E0204602F09CFB002800D0FE
:100FD00001270121042004F04FF80021042004F02F
:100FE0004BF800BF01218902454802F0B1FC0028FE
:100FF000F8D0684603F0D8FD182269463348FFF759
:101000009DF82046FFF7D8F9304AD16090602E480D
:1010100000691146096988421AD2104600692828D9
:1010200016D9182229492848FFF788F81822274995
:101030003248FFF783F82448007823490969009172
:101040000190214885682A46C3682EA000F076FAF0
:101050006434404800688442B5D91B4800690028C0
:1010600001D102272DE018488268C1681046FFF7B9
:10107000B1F9054602F046FB002800D00127012106
:10108000042003F0F9FF0021042003F0F5FF0E48CF
:101090000178132003F0F0FF7D20000102F0D6F963
:1010A0000121062003F0E8FF074800780649096996
:1010B00000910190044885682A46C36811A000F099
:1010C0003DFA384607B0F0BD6005002078050020E5
:1010D0009002002038000020322E36203447207342
:1010E000776565702064656661756C7420667265ED
:1010F000712073746172740D0A0000009802002060
:101100000004004866726571203A2025302E34664E
:10111000206B687A2C207065616B203A2025642C46
:10112000206E696432203A2025640D0A0000000018
:10113000322E36203447207377656570206C6F6FD0
:101140007020667265712073746172740D0A0000FC
:101150003C0000204000002010B504F0E3F810BD72
:1011600010B51B480068012108431949086008466A
:101170004068184908401649486008460068164902
:101180000840134908600846006801218904884323
:101190000F490860084640683F21090488430C490C
:1011A00048600846C06A00090001C8620846006B32
:1011B000FF2154318843064908630846406B4008C4
:1011C0004000486300208860FFF744FE10BD000027
:1011D000001002400CB8FF08FFFFF6FE10B5012119
:1011E000154804F00CF8002825D00121124804F01D
:1011F00003F812480078401C104908701048007825
:10120000002807D000200E49087010210D4802F078
:10121000F1FA06E001200A4908701021094802F09D
:10122000E7FA064800780A2805DD0020034908701F
:1012300001200549087010BD00040040880000200E
:1012400089000020000400480C00002070B504460E
:101250000025002027490860012C02D0022C46D12D
:1012600022E005E023480068401C2249086000BFD6
:101270000221214802F06CFB002804D01D480068C0
:101280001E498842EED31B4800681C49884204D29C
:10129000002018490860012505E000201549086074
:1012A00017490870002522E005E012480068401C3C
:1012B0001049086000BF01210F4802F049FB0028D7
:1012C00004D00C4800680D498842EED309480068F4
:1012D0000A49884204D2002006490860012505E039
:1012E00000200449086007490870002500BF00BFBE
:1012F000284670BD200000200004004820A10700FF
:10130000440000204500002010B52B492B4804F074
:10131000D0F901284FD1294804F096F8C1B22848E5
:1013200002780078401C264B1870264881541846D5
:10133000007804281CD12348007843280BD1214889
:101340004078532807D11F488078412803D11D4891
:10135000C07844280CD01B4840781A4908700846C9
:10136000807848700846C078887003201449087057
:1013700013480078502818D011480078001F1149F0
:10138000085CFE2817D10E480078C01E085CFC28B7
:1013900011D10B480078801E085CFE280BD108484C
:1013A0000078401E085CFC2805D101200649087021
:1013B00000200349087010BD0501050000380140F8
:1013C00000000020E80200200100002070B5044663
:1013D000200B00F009F805462B46FF2212010621DA
:1013E0000120FFF72BFB70BD0246002101E0481CE5
:1013F00081B2C800074B1858074B984204D0C80068
:10140000044B18589042F2D1C800024BC018007922
:10141000704700008C000020FFFF0F000FB410B5D4
:101420000446012C02D0022C61D131E06846007BD9
:1014300002280BD12FA0059900F080F8059802F042
:1014400005F8002010BC08BC04B018476846007BB3
:1014500001280ED16846417B0120059B049AFFF7C5
:1014600027FB6846417B27A0059B049A00F066F89D
:101470000DE06846417B05AB0120049AFFF73CFA7A
:101480006846417B26A0059B049A00F057F82EE0A1
:101490006846007B022808D116A0059900F04EF896
:1014A000059801F0D3FF0020CCE76846007B0128B7
:1014B0000ED16846417B0220059B049AFFF7F8FA9B
:1014C0006846417B0FA0059B049A00F037F80DE0B9
:1014D0006846417B05AB0220049AFFF70DFA684687
:1014E000417B0FA0059B049A00F028F800BF00BFC5
:1014F0002846A7E744656C61795F757328256429E0
:101500000D0A000077726974652025642030782503
:10151000303858203078253038580D0A0000000047
:101520007265616420202564203078253038582089
:101530003078253038580D0A000000000FB410B57F
:1015400003A9044B044A029800F0E8F810BC08BC58
:1015500004B01847E1360008E40200202021020C04
:1015600001D010211046020A01D0104608390209A4
:1015700001D01046091F820801D01046891E42087A
:1015800001D0881E7047081A704730B47446641E34
:101590002578641CAB4204D3635D5B00E31830BC68
:1015A00018471D46F8E702E008C8121F08C1002AC4
:1015B000FAD170477047002001E001C1121F002AD4
:1015C000FBD17047F0B51FB484B007980699020D9F
:1015D000014314D04A484B491018484305140F984A
:1015E00001280E981CD0281A401C0024464E47495A
:1015F000009401910290002814DA474227E00F98E6
:10160000012443A3012808D0002104980F9A846084
:101610000360C260416009B0F0BD0E98C143F4E7B9
:101620004042E2E7074612E0F80707D02246334679
:1016300001990098FEF758FE01910090224633462A
:1016400010461946FEF750FE04460E467F10002F46
:10165000EAD10298019B0028009A0799069802DABD
:10166000FEF742FE01E0FEF797FF04460E46002219
:10167000284BFFF729F803D80020C043014607E0B4
:101680000022254B20463146FEF77CFDFEF7FCFF8D
:10169000102409E0002C0ADB0A220023FEF7B8FE22
:1016A000059B30321A55641E02460A43F2D11122BC
:1016B000641C059B121B1C190F9B012B03D00123DB
:1016C00008430ED10AE0084304D011200E900020F8
:1016D0000F9084E70E98151A6D1E0BE00E9882424B
:1016E00002DD00236D1C03E0824201DA00236D1E3F
:1016F000002BEED004980F998260C16030C08AE759
:1017000001FCFFFF104D0000000024400000F03FEE
:10171000300000000000F0430000E03FFFB597B04C
:101720000646002518E2252877D100242746FD49E2
:10173000049400E00443761C32780120203A904063
:101740000842F7D130782A280ED00222307801469C
:101750003039092916D804990A23594330394018D9
:101760001443761C0490F1E7189802C8049118906D
:10177000002904DA01204003044348420490022077
:101780000443761C30782E2814D10420044370784A
:10179000761C2A2809D11898761C80C8189009E070
:1017A0000A214F43303FC719761C30780146303943
:1017B0000929F5D930786C2810D006DC4C281AD0CD
:1017C00068280ED06A2817D104E0742813D07A282C
:1017D00012D110E00120400504430CE0012109056D
:1017E00001E0032109050C437178814203D10120F6
:1017F00000052418761C761C3078119066280BD0D2
:1018000013DC58287DD009DC00287BD04528F6D091
:101810004628F4D047281AD1A5E118E0632835D02E
:10182000642870D0652812D19DE170286CD008DC46
:101830006728F1D069287BD06E280DD06F2806D19B
:10184000BAE073282ED0752871D0782859D01A9A0A
:10185000199990476D1C7EE16002400F022809D063
:1018600003280DD00428189801680DD00D60001DC4
:10187000189070E11898EA1701680D604A60F6E761
:10188000189801680D80F2E70D70F0E718986A4625
:1018900001781172001D18900020507202A800906B
:1018A000012005E0189802C8189000200091C0435C
:1018B00061070DD5002101E00199491C0191B94250
:1018C00012DA8142F8DB009A515C0029F4D10BE076
:1018D000002101E00199491C01918142FADB019A42
:1018E0000099895C0029F5D1019904981A9B471A3F
:1018F00021463846199A00F097FA0199401945187F
:101900000BE04FE02CE113E04EE0009800990078E6
:10191000491C00911A9A199990470198401E01900C
:10192000401CF2D1214638461A9B199A10E137E043
:101930000A200021009001916002410F022907D086
:10194000189A01CA1892C2179446032908D00AE0CF
:101950001898C01DC108C90005C91891944607E030
:1019600000B2C2179446042902D140B2C1178C4676
:1019700000226146944506DA0A4600214042914120
:101980008C462D2102E0210504D52B216A461173D6
:10199000012103E0E10701D02021F7E7029155E0A2
:1019A0000A200AE0102008E0102000900021042006
:1019B00004430191082703E00820002101910090D1
:1019C0006002410F022907D0189A01CA189200221A
:1019D0009446032908D008E01898C01DC108C90022
:1019E00005C91891944603E080B2042900D1C0B221
:1019F00000210291210729D51199702906D0009A5A
:101A00001021019B4A401A4305D00EE040216A464E
:101A10001173012108E06146014306D030216A4676
:101A200011731199517302210291009A0821019BAF
:101A30004A401A430AD16146014301D1610705D5E5
:101A400030216A46117301217F1E02911199582994
:101A500004D035A10E910DA90D910DE037A1F9E744
:101A60006146019B009AFEF7D3FC0E9B8C469B5C63
:101A70000D9A521E0D92137061460143F0D10D98DC
:101A800005A9081A20300190600703D50120000441
:101A9000844300E001270198874201DD381A00E005
:101AA0000020019900904118029809180498401AE2
:101AB0000490E00306D421461A9B199A049800F07A
:101AC000B3F94519002706E003A81A9AC05D1999D1
:101AD00090476D1C7F1C02988742F5DBE0030CD514
:101AE00021461A9B199A049800F09EF9451904E0C2
:101AF0001A9A3020199990476D1C0099481E009041
:101B00000029F5DC08E00D980D990078491C0D912D
:101B10001A9A199990476D1C0199481E0190002945
:101B2000F1DC63E1092801003031323334353637D6
:101B30003839616263646566000000003031323319
:101B400034353637383941424344454600000000B9
:101B500000F05AF94519761C3078002800D0E2E5EB
:101B600028461BB0F0BD600700D406271898C01D9A
:101B7000C108C90048680A680831C30FDB0718911B
:101B8000190001D09CA108E0210501D59BA104E02A
:101B9000E10701D09AA100E09AA1430011985B08E7
:101BA000109165280CD006DC452809D046281DD0A8
:101BB000472841D141E0662818D067283CD13CE055
:101BC0000021112F01DB112000E0781C0191009011
:101BD00008A911A8FFF7F6FC139905910021119AA5
:101BE00015927F1C12980197009150E00120C007C8
:101BF00003900120019008A9009711A8FFF7E2FCCB
:101C0000139A149905920022119B00921298159331
:101C1000059A0192002901D0104602E0791C401873
:101C20000190381A01D5019804E04042401E00900E
:101C3000781C0190C01B029043E0012F00DA0127BD
:101C40000021112F01DD112000E0384601910090A4
:101C500008A911A8FFF7B6FC13990591119A002164
:101C6000129815920091019721070CD40599B94259
:101C700001DB019900E00191012904DD159A491E5B
:101C8000515C302906D0B84201DA011D05DA012184
:101C9000029115E00199491EEDE7002805DC009945
:101CA000411800910199091A03E0019A411C9142DF
:101CB00000DD01910099401A401C02900120C007EC
:101CC0000390200706D402990198814202DB00208C
:101CD000C043029000206946C87707AF01210398EE
:101CE0000337C907884224D0022011902B2012907C
:101CF000039800280CDA404203902D20129007E050
:101D00000A210398FEF7F0F930317F1E03903970F5
:101D10001199481E11900029F2DC03980028EFD198
:101D2000791E129808703078202108404530BF1E77
:101D3000387006A8C01BC01D0390109800780028BA
:101D400000D00120019941180298C0170918039882
:101D500009180498401A401E0490E00306D4214656
:101D60001A9B199A049800F05FF8451910980078AA
:101D7000002803D01A9A199990476D1CE00324D5C6
:101D800021461A9B199A049800F04EF845191CE058
:101D90000098002807DB00990598884203DD159814
:101DA000405C199901E0199930201A9A90470098DF
:101DB0006D1C401C00900298401E0290002804D127
:101DC0001A9A2E20199990476D1C0199481E01906E
:101DD0000029DDDC05E038781A9A7F1C19999047B4
:101DE0006D1C0399481E03900029F4DC21461A9BC0
:101DF000199A0498ACE600002D0000002B000000AA
:101E00002000000000000000F8B5044600251E4632
:101E10001746880404D405E039462020B0476D1CDD
:101E2000641EF9D52846F8BDFFB50446002581B0EB
:101E30001E46C80301D5302700E02027880404D5BA
:101E400005E038460399B0476D1C641EF9D5284655
:101E500005B0F0BD00B589B00121880402F0F0FEA4
:101E60000121480502F0FCFE01220621144801F080
:101E700079FD01220721124801F074FDC020009075
:101E80000221684601710021417101218171C171F6
:101E900069460B4801F014FD002005900390069060
:101EA0000490079008900748029002A9064801F0A4
:101EB0009DFD0121044801F07DFD09B000BD000039
:101EC000000400485D3E30000054004010B5044658
:101ED000012C02D0022C7DD1B6E00422B649B748CD
:101EE000FEF72CF90422B449091DB448001DFEF781
:101EF00025F90422B0490C31B0480830FEF71EF92C
:101F00000422AD491031AD480C30FEF717F9042218
:101F1000A9491831A9481030FEF710F90422A64942
:101F20001C31A6481430FEF709F90422A2492431D5
:101F3000A2481830FEF702F904229F4928319F4831
:101F40001C30FEF7FBF804229B4930319B482030BF
:101F5000FEF7F4F804229849343198482430FEF70B
:101F6000EDF800209649087067E000209549087058
:101F700026E093480078C0009049085891490978B4
:101F8000C900914A5158884212D190A0FFF7D6FA61
:101F90008B480078C0008949401840688949097811
:101FA000C900894A8918486001208E4908700DE0EF
:101FB00000208C49087083480078401C81490870D3
:101FC00080480078884909688842D2D300BF854894
:101FD000007800E0EDE000282AD179480078C000C0
:101FE0007649085881490968C900774A50507448B1
:101FF0000078C0007149401840687C490968C900F0
:102000008918486079480068C0001346C0184268C3
:1020100076480068C000195875A0FFF78FFA73481A
:1020200000681E2804D271480068401C6F4908608F
:1020300063480078401C624908706148007877491D
:102040000968884291D3B4E004225B495B48FEF7FB
:1020500075F804225849091D5848001DFEF76EF80E
:10206000042255490C3155480830FEF767F8042220
:102070005149103151480C30FEF760F804224E49A6
:1020800018314E481030FEF759F804224A491C31E5
:102090004A481430FEF752F8042247492431474891
:1020A0001830FEF74BF804224349283143481C30CE
:1020B000FEF744F804224049303140482030FEF712
:1020C0003DF804223C4934313C482430FEF736F8D0
:1020D00000203B49087065E000203A49087026E07E
:1020E00037480078C0003549085836490978C90092
:1020F0004B4A5158884212D14AA0FFF71FFA304884
:102100000078C0002D49401840682E490978C90060
:10211000434A891848600120324908700DE00020C8
:102120003049087027480078401C26490870254827
:1021300000782D4909688842D2D300BF2948007829
:1021400000282AD11E480078C0001C4908583B4985
:102150000968C900324A505019480078C000174930
:102160004018406835490968C900891848603348F3
:102170000068C0001346C018426830480068C000BC
:1021800019582FA0FFF7DAF92C4800681E2804D24E
:102190002A480068401C2949086009480078401C0A
:1021A00007490870064800781C490968884293D39B
:1021B00000BF00BF10BD0000ED020020380300206A
:1021C000030000200400002060030020414431206F
:1021D00072656769737465722069732065786973C5
:1021E000740D0A00020000201400002048000020A6
:1021F0004144312077726974652061646472203AC9
:1022000020253878202C2077726974652076616CDF
:102210007565203A202538780D0A00001800002046
:1022200050040020414432207265676973746572FE
:102230002069732065786973740D0A004C000020D2
:102240004144322077726974652061646472203A77
:1022500020253878202C2077726974652076616C8F
:102260007565203A202538780D0A000010B504461F
:10227000012C02D0022C7DD1A8E00422A849A94853
:10228000FDF75CFF0422A649091DA648001DFDF7C5
:1022900055FF0422A2490C31A2480830FDF74EFF39
:1022A00004229F4910319F480C30FDF747FF04225C
:1022B0009B4918319B481030FDF740FF0422984994
:1022C0001C3198481430FDF739FF04229449243119
:1022D00094481830FDF732FF042291492831914883
:1022E0001C30FDF72BFF00208F49087067E00020AD
:1022F0008E49087026E08C480078C000894908584B
:102300008A490978C9008A4A5158884212D189A05D
:10231000FFF714F984480078C000824940184068EB
:1023200082490978C900824A891848600120874992
:1023300008700DE00020854908707C480078401C3A
:102340007A49087079480078814909688842D2D36F
:1023500000BF7E48007800282CD173480078C00068
:10236000704908587B490968C900714A50506E4845
:10237000007800E0D1E0C0006A4940184068754923
:102380000968C9008918486072480068C00013468F
:10239000C01842686F480068C00019586EA0FFF767
:1023A000CDF86C4800681E2804D26A480068401CBA
:1023B000684908605C480078401C5B4908705A48CE
:1023C000007870490968884291D3A6E004225449F4
:1023D0005448FDF7B3FE04225149091D5148001D20
:1023E000FDF7ACFE04224E490C314E480830FDF793
:1023F000A5FE04224A4910314A480C30FDF79EFEE2
:1024000004224749183147481030FDF797FE04224F
:1024100043491C3143481430FDF790FE04224049E3
:10242000243140481830FDF789FE04223C49283108
:102430003C481C30FDF782FE00203B49087065E0F7
:1024400000203A49087026E037480078C000354936
:10245000085836490978C9004B4A5158884212D168
:102460004AA0FFF76BF830480078C0002D494018AB
:1024700040682E490978C900434A891848600120FC
:10248000324908700DE00020304908702748007874
:10249000401C26490870254800782D490968884263
:1024A000D2D300BF2948007800282AD11E480078DE
:1024B000C0001C4908583B490968C900324A5050BD
:1024C00019480078C0001749401840683549096824
:1024D000C9008918486033480068C0001346C01816
:1024E000426830480068C00019582FA0FFF726F84E
:1024F0002C4800681E2804D22A480068401C29493C
:10250000086009480078401C0749087006480078B0
:102510001C490968884293D300BF00BF10BD00006A
:10252000ED020020380300200300002004000020FA
:1025300060030020414431207265676973746572DD
:102540002069732065786973740D0A000200002009
:102550001400002048000020414431207772697443
:10256000652061646472203A20253878202C207719
:10257000726974652076616C7565203A202538781B
:102580000D0A0000180000205004002041443220B1
:102590007265676973746572206973206578697301
:1025A000740D0A004C000020414432207772697497
:1025B000652061646472203A20253878202C2077C9
:1025C000726974652076616C7565203A20253878CB
:1025D0000D0A000010B50446012C02D0022C7CD15B
:1025E0007CE004227D497E48FDF7A8FD04227B495A
:1025F000091D7B48001DFDF7A1FD002079490870E9
:1026000065E000207849087026E076480078C00030
:102610007349085874490978C900744A5158884266
:1026200012D173A0FEF78AFF6E480078C0006C4993
:10263000401840686C490978C9006C4A891848609C
:102640000120714908700DE000206F49087066484C
:102650000078401C64490870634800786B49096839
:102660008842D2D300BF6848007800282AD15D484C
:102670000078C0005A49085865490968C9005B4A92
:10268000505058480078C00055494018406860498B
:102690000968C900891848605D480068C000134691
:1026A000C01842685A480068C000195859A0FEF77F
:1026B00045FF574800681E2804D255480068401C52
:1026C0005349086047480078401C4649087045480F
:1026D00000785B490968884293D37CE004223F4933
:1026E0003F48FDF72BFD04223C49091D3C48001DD5
:1026F000FDF724FD00203B49087065E000203A49C1
:10270000087026E037480078C00035490858364937
:102710000978C9004B4A5158884212D14AA0FEF7A5
:102720000DFF30480078C0002D49401840682E4900
:102730000978C900434A8918486001203249087065
:102740000DE000203049087027480078401C2649D9
:102750000870254800782D4909688842D2D300BF07
:102760002948007800282AD11E480078C0001C495A
:1027700008583B490968C900324A50501948007846
:10278000C00017494018406835490968C9008918D0
:10279000486033480068C0001346C018426830489B
:1027A0000068C00019582FA0FEF7C8FE2C4800682A
:1027B0001E2804D22A480068401C2949086009489C
:1027C0000078401C07490870064800781C490968D1
:1027D000884293D300BF00BF10BD0000ED0200206F
:1027E00038030020030000200400002060030020C4
:1027F0004144312072656769737465722069732082
:1028000065786973740D0A0002000020140000202E
:10281000480000204144312077726974652061646A
:102820006472203A20253878202C207772697465EC
:102830002076616C7565203A202538780D0A0000F5
:10284000180000205004002041443220726567695E
:10285000737465722069732065786973740D0A005A
:102860004C00002041443220777269746520616415
:102870006472203A20253878202C2077726974659C
:102880002076616C7565203A202538780D0A0000A5
:1028900010B50446012C02D0022C7DD19AE004220E
:1028A0009A499B48FDF74AFC04229849091D98481B
:1028B000001DFDF743FC042294490C319448083074
:1028C000FDF73CFC04229149103191480C30FDF792
:1028D00035FC04228D4918318D481030FDF72EFC4F
:1028E00004228A491C318A481430FDF727FC002055
:1028F0008849087067E000208749087026E085480D
:102900000078C0008249085883490978C900834A81
:102910005158884212D182A0FEF710FE7D480078FF
:10292000C0007B49401840687B490978C9007B4A50
:10293000891848600120804908700DE000207E4918
:10294000087075480078401C734908707248007818
:102950007A4909688842D2D300BF774800780028B6
:102960002CD16C480078C00069490858744909683E
:10297000C9006A4A505067480078C000644940184E
:1029800040686F490968C900891848606C48006848
:10299000C0001346C01800E0B5E04268684800680F
:1029A000C000195867A0FEF7C9FD654800681E28D9
:1029B00004D263480068401C6149086055480078AB
:1029C000401C544908705348007869490968884296
:1029D00091D398E004224D494D48FDF7AFFB042206
:1029E0004A49091D4A48001DFDF7A8FB0422474932
:1029F0000C3147480830FDF7A1FB04224349103150
:102A000043480C30FDF79AFB0422404918314048F6
:102A10001030FDF793FB04223C491C313C48143034
:102A2000FDF78CFB00203B49087065E000203A4927
:102A3000087026E037480078C00035490858364904
:102A40000978C9004B4A5158884212D14AA0FEF772
:102A500075FD30480078C0002D49401840682E4967
:102A60000978C900434A8918486001203249087032
:102A70000DE000203049087027480078401C2649A6
:102A80000870254800782D4909688842D2D300BFD4
:102A90002948007800282AD11E480078C0001C4927
:102AA00008583B490968C900324A50501948007813
:102AB000C00017494018406835490968C90089189D
:102AC000486033480068C0001346C0184268304868
:102AD0000068C00019582FA0FEF730FD2C48006890
:102AE0001E2804D22A480068401C29490860094869
:102AF0000078401C07490870064800781C4909689E
:102B0000884293D300BF00BF10BD0000ED0200203B
:102B10003803002003000020040000206003002090
:102B2000414431207265676973746572206973204E
:102B300065786973740D0A000200002014000020FB
:102B40004800002041443120777269746520616437
:102B50006472203A20253878202C207772697465B9
:102B60002076616C7565203A202538780D0A0000C2
:102B7000180000205004002041443220726567692B
:102B8000737465722069732065786973740D0A0027
:102B90004C000020414432207772697465206164E2
:102BA0006472203A20253878202C20777269746569
:102BB0002076616C7565203A202538780D0A000072
:102BC00010B50446012C02D0022C7DD18CE00422E9
:102BD0008C498D48FDF7B2FA04228A49091D8A48BA
:102BE000001DFDF7ABFA042286490C3186480830F7
:102BF000FDF7A4FA04228349103183480C30FDF715
:102C00009DFA00208149087067E000208049087023
:102C100026E07E480078C0007B4908587C49097846
:102C2000C9007C4A5158884212D17BA0FEF786FC2D
:102C300076480078C00074494018406874490978A3
:102C4000C900744A891848600120794908700DE06C
:102C50000020774908706E480078401C6C49087065
:102C60006B480078734909688842D2D300BF704826
:102C7000007800282CD165480078C00062490858C7
:102C80006D490968C900634A505060480078C00027
:102C90005D494018406868490968C900891848605A
:102CA00065480068C0001346C01842686248006862
:102CB000C000195861A0FEF741FC5F4800681E285B
:102CC00006D25D48006800E099E0401C5A4908605F
:102CD0004E480078401C4D4908704C4800786249C5
:102CE0000968884291D38AE0042246494648FDF7A4
:102CF00025FA04224349091D4348001DFDF71EFA29
:102D0000042240490C3140480830FDF717FA0422EC
:102D10003C4910313C480C30FDF710FA00203B498B
:102D2000087065E000203A49087026E037480078CE
:102D3000C0003549085836490978C9004B4A5158EE
:102D4000884212D14AA0FEF7F9FB30480078C00053
:102D50002D49401840682E490978C900434A89180E
:102D600048600120324908700DE0002030490870A9
:102D700027480078401C26490870254800782D49CE
:102D800009688842D2D300BF2948007800282AD198
:102D90001E480078C0001C4908583B490968C90012
:102DA000324A505019480078C0001749401840680E
:102DB00035490968C9008918486033480068C0006F
:102DC0001346C018426830480068C00019582FA048
:102DD000FEF7B4FB2C4800681E2804D22A4800687D
:102DE000401C2949086009480078401C07490870C0
:102DF000064800781C490968884293D300BF00BF89
:102E000010BD0000ED020020380300200300002068
:102E1000040000206003002041443120726567698E
:102E2000737465722069732065786973740D0A0084
:102E300002000020140000204800002041443120FE
:102E400077726974652061646472203A202538784D
:102E5000202C2077726974652076616C7565203A44
:102E6000202538780D0A00001800002050040020AA
:102E700041443220726567697374657220697320FA
:102E800065786973740D0A004C00002041443220BB
:102E900077726974652061646472203A20253878FD
:102EA000202C2077726974652076616C7565203AF4
:102EB000202538780D0A0000F7B584B0074615467E
:102EC000002600200390002402902888FF21FDF7AF
:102ED00021F903902888FF21FDF71CF90E460120F7
:102EE0004003002302220090B1480188B14800F05D
:102EF000B3FD05204003B04908600CE0AE49086806
:102F0000411EAD4A1160002805D1ACA0FEF716FBAA
:102F1000012007B0F0BD0221A64800F059FD0028AD
:102F2000ECD0FF221202059810400112A14800F0D7
:102F30003FFD05204003A04908600BE09E4908685A
:102F4000411E9D4A1160002804D1A4A0FEF7F6FAA4
:102F50000120DEE70221974800F03AFD0028EDD07D
:102F60000598C1B2934800F023FD05204003924923
:102F700008600BE090490868411E8F4A11600028E4
:102F800004D19EA0FEF7DAFA0120C2E74021894869
:102F900000F01EFD0028EDD0039800287ED001200F
:102FA000029074E00298002813D105204003824962
:102FB000086008E080490868411E7F4A11600028C7
:102FC00001D10120A5E780217A4800F001FD002809
:102FD000F0D0039801281BD1002E19D102980028A7
:102FE0000BD00920800201235B06FF22009070486D
:102FF0000188704800F030FD23E0002001235B06CB
:10300000FF2200906A4801886A4800F025FD18E018
:10301000029800280BD00920800201231B06FF2202
:10302000009063480188634800F016FD09E0002025
:1030300001231B06FF2200905D4801885D4800F0D7
:103040000BFD0020029000241BE0052040035A499C
:10305000086008E058490868411E574A1160002876
:1030600001D1012055E70421524800F0B1FC0028AD
:10307000F0D0504800F098FC3855641C2888401E59
:103080002880FF2CE1D13F190398401E039003983C
:10309000002887D1002E6ED0052000E03DE04003DF
:1030A0004549086008E044490868411E424A1160E9
:1030B000002801D101202CE780213E4800F088FC47
:1030C0000028F0D00020F2B201235B0600903848BF
:1030D0000188384800F0C0FC00241BE005204003B4
:1030E0003549086008E034490868411E324A1160D9
:1030F000002801D101200CE704212E4800F068FCD3
:103100000028F0D02B4800F04FFC3855641C28886C
:10311000401E2880B442E1D12DE009208002F2B2A5
:1031200001235B06009022480188224800F094FCAD
:1031300000241EE0052040031F4908600BE01E49E3
:103140000868411E1C4A1160002804D133A0FEF714
:10315000F5F90120DDE60421164800F039FC0028CD
:10316000EDD0144800F020FC3855641C2888401E1F
:103170002880B442DED1052040030F4908600BE0EF
:103180000D490868411E0C4A1160002804D129A08D
:10319000FEF7D4F90120BCE62021064800F018FC17
:1031A0000028EDD02021034800F010FC0020B0E6FC
:1031B000B402002000540040B80200203473656E51
:1031C0006420686172647761726520616464722052
:1031D0006661696C6564210D0A0000003573656ED7
:1031E0006420686172647761726520616464722032
:1031F0006661696C6564210D0A0000003673656EB6
:103200006420686172647761726520616464722011
:103210006661696C6564210D0A000000776169745C
:103220002072786E6520666C6167206661696C65E6
:10323000640D0A00776169742073746F7020666C86
:103240006167206661696C65640D0A0010B57D21B7
:10325000C9000C480068FCF747FF0446601E0A4995
:10326000884200D90CE0601E084948610321081F0C
:10327000FDF774FC0020054988610720086100BF44
:1032800010BD0000C0020020FFFFFF0000E000E0D2
:1032900010B504462300FEF778F9050413223140E7
:1032A0004F0034A0FEF74AF939483A4908603A48D5
:1032B0003A49086000213A483A4A9160D0603BE0C0
:1032C00039A0FEF73BF93F48324908603E48334990
:1032D000086000213D48334A9160D0602CE03CA05A
:1032E000FEF72CF941482B49086041482B490860FA
:1032F000002140482B4A9160D0601DE03EA0FEF7BF
:103300001DF94448234908604348244908600021C6
:103310004248244A9160D0600EE041A0FEF70EF9C9
:1033200046481C4908603B481C4908600020444945
:103330001C4AD160906000BF00BF42480078800006
:103340004149085815490968884212D83D48007813
:1033500080003D4908580F490968884209D3394916
:1033600009788900384A5058FDF726F80D4AD1608F
:10337000906010BD7363616E2066726571203A20A3
:10338000313838352D31393135206B687A0D0A00E6
:1033900048C31C003C00002078381D00400000207D
:1033A00090E93C41980200207363616E206672656B
:1033B00071203A20323031302D32303235206B6876
:1033C0007A0D0A0090AB1E0028E61E00A0D23E41F6
:1033D0007363616E2066726571203A20323330303B
:1033E0002D32333930206B687A0D0A0060182300C3
:1033F000F0772400923342417363616E20667265F8
:1034000071203A20323537352D32363535206B680C
:103410007A0D0A00984A2700188328000A2D444193
:103420007363616E2066726571203A2032353135E2
:103430002D32353735206B687A0D0A00386026004A
:10344000DE954341380000204005002001B50449C5
:103450000098086000BF024800680028FBD108BD42
:10346000B002002000B585B00121880401F0E8FB1E
:103470000121084601F014FC012003900021684658
:103480000174C17403A9114800F01AFA0021012047
:1034900001F07AFE012001900021684601720821A6
:1034A00041720121817201A800F012F801200190FF
:1034B00001A800F00DF80521684601700021417057
:1034C0000121817001F038FB05B000BD0004004807
:1034D000002120498279002A35D00A461268036803
:1034E0009A430B461A600A46526803689A430B4691
:1034F0005A60027951180A6803681A430A60154A2B
:10350000926803689A43134B9A601A46D26803681C
:103510009A43104BDA604279102A0CD11A4692680D
:1035200003681A430B4B9A601A46D26803681A4321
:10353000084BDA600DE00749427951180A680368C0
:103540001A430A6005E0027951180A6803689A4331
:103550000A6070470004014001494861704700005B
:103560000004014001460020044A52690A40002A32
:1035700001D0012000E0002070470000000401405D
:103580000149C860704700000020024003480069FC
:103590008021084301490861704700000020024073
:1035A00010B50346042400F035F8044603E000F0AB
:1035B00031F804465B1E012C01D1002BF7D1002B02
:1035C00000D10524204610BD30B5044604250B204B
:1035D0000004FFF7E5FF0546042D17D10C480069EC
:1035E000022108430A4908610846446100694021F4
:1035F0000843074908610B200004FFF7D1FF054687
:10360000034800690221884301490861284630BD0A
:103610000020024004200D49C968C907C90F0029CC
:1036200001D0012010E00949C96810221140002989
:1036300001D0022008E00549C96804221140002990
:1036400001D0032000E00420704700000020024069
:103650000548006980210840002804D00348024939
:1036600048600348486070470020024023016745D6
:10367000AB89EFCD78B506460C46042500200090B6
:103680000B200004FFF78CFF0546042D24D11348BE
:103690000069012108431149086134800B200004AE
:1036A000FFF77EFF0546042D10D1B01C0090200CC2
:1036B000009908800B200004FFF772FF05460748B9
:1036C0000069400840000549086105E003480069B9
:1036D0004008400001490861284678BD00200240AA
:1036E00070B504460D46E1B2054801F0B2FE00BFD8
:1036F0004021034801F036FF0028F9D0204670BD74
:103700000038014038B50446002500200090012013
:10371000FDF79CFD002803D126A0FDF70FFF012532
:103720002346284A00210120FDF7C2F90120FDF7B8
:103730008DFD002803D11FA0FDF700FF0125082300
:10374000214A00210120FDF7B3F90A20FFF77EFE90
:103750000120FDF77BFD002803D116A0FDF7EEFE4A
:103760000125002000900BE06B46184A0021012043
:10377000FDF7C2F816480068401C1549086000BFF4
:103780000098012804D01248006812498842EBD3FF
:103790000F4800680F49884203D200200C49086096
:1037A00006E000200A4908600BA0FDF7C7FE0125CE
:1037B000284638BD414420697320627573790D0A2B
:1037C000000000000840002080112000600120005F
:1037D0002000002020A107004144312052582069D8
:1037E00073206E6F74206C6F636B0D0A0000000015
:1037F00001857047816170471CB50121480401F0C3
:103800001FFA0121880401F01BFA0121880501F04B
:1038100017FA01204002009001216846017103213E
:10382000417100218171C1716946244800F048F856
:10383000012080020090002168460171032141713E
:1038400000218171C17169461C4800F039F80120DE
:10385000C0020090012168460171032141710021DD
:103860008171C1716946154800F02AF8082000905E
:103870000021684601710321417100218171C171EC
:1038800069460E4800F01CF810200090012168469F
:1038900001710321417100218171C171694607489D
:1038A00000F00EF810210548FFF7A4FF0A20FFF7EB
:1038B000CDFD10210148FFF79BFF1CBD000400480F
:1038C000F0B50A4600210023002400BF3DE0012599
:1038D0008D402B4615681D402C469C4234D11579ED
:1038E000012D02D01579022D16D185684F000326CF
:1038F000BE40B543856055794E00B5408668354376
:103900008560858801268E40B543858085889679B7
:103910008E40B6B23543858005684F000326BE4011
:10392000B543056015794E00B5400668354305601E
:10393000C5684F000326BE40B543C560D5794E002B
:10394000B540C6683543C560491C1029BFD3F0BDDA
:1039500002460020138A0B40002B01D0012000E01A
:1039600000207047F0B5002300244D07EE0E1546E9
:10397000B5402B46CD10AE0005462035AD594E075B
:10398000F70E0F26BE40B543CE10B60007462037CF
:10399000BD51CD10AE003D46AD591D432C46CD1056
:1039A000AD003E467451F0BD01464A6AD0B2704740
:1039B00081627047002904D0026801231A43026023
:1039C00003E002685208520002607047C16170470C
:1039D00010B502460023002093691C460C40234684
:1039E000002B01D0012000E0002010BD10B50A46D8
:1039F000002103685B085B0003600168144B1940F9
:103A00009468240253682343194301600F24240659
:103A10001368A34303610368012423430360002167
:103A20008160C1601469936923431946816083688A
:103A30000124E40323438360D16803680B430360DC
:103A40004168044B194053691943416010BD00009F
:103A5000FFE0CF00FF7FFF07F0B50C460021416873
:103A60000568012676053540B54204D1012A02D108
:103A70001506AB420DD0074D2940A505AD0D160426
:103A8000FF273F043E4035431D43059E35432943F0
:103A90004160F0BD009800FC08B500200090502166
:103AA000ED48FCF764FB01F005FCFFF7CFFBFFF7E7
:103AB000A3FEFEF7CFF9FFF7D5FC01F03FFC7D2018
:103AC000C000FFF7C3FCE5480178E5A0FDF736FD2F
:103AD000E8A0FDF733FD01F005FA0721ECA0FDF7A2
:103AE0002DFD0020F04908600DE0BC21002001F010
:103AF000C3FA002001F03CFAEB490860084601686F
:103B0000EAA0FDF71BFDE8480068BC28EDD10020C5
:103B1000E5490860192001F02BFAE3490860E8A2A2
:103B2000EAA1EDA0FDF70AFD0021F3A0FDF706FDD7
:103B3000CA480178CAA0FDF701FDDB480168F2A080
:103B4000FDF7FCFC00BFF548007800280BD10121EF
:103B5000084601F091FA0021012001F08DFA0121BF
:103B6000084601F089FA7D20C000FFF76FFCEB48A2
:103B7000007800280ED100906B463D229201012171
:103B80000846FCF7B9FEE6A00099FDF7D7FC012036
:103B9000FCF79CFE7D20C000FFF758FCFCF7E6FD1B
:103BA000DE48007800280BD10023E04A01210846B6
:103BB000FCF77EFF0123DD4A19461846FCF778FF23
:103BC0007D200001FFF742FCD448007800284CD14A
:103BD00000906B460122520700210120FCF78CFE69
:103BE000D3A00099FDF7AAFCFF2124310098884258
:103BF00000D0A8E70020D64908702BE00120FDF78F
:103C000025FBA949086008460068002800D19AE70A
:103C1000CF480078C000CF4940184368CC480078AE
:103C2000C0000A5800210120FCF742FF0A20FFF7DC
:103C30000DFCC7480078C000C6490858C6498842EC
:103C400003D17D20C000FFF701FCC1480078401C73
:103C5000BF490870BE4800780728CFD37D20C00038
:103C6000FFF7F4FBBDA0FDF769FC0120AB4908702C
:103C70000020C04908600BE0BE4BBF4A0021012074
:103C8000FCF73AFEBD480068401CBC49086000BF14
:103C9000B8480068012804D0B8480068B84988428C
:103CA000EAD3B6480068B649884203D20020B34937
:103CB000086008E00020B149086098490870B1A088
:103CC000FDF73CFC3FE7B5A0FDF738FC0020B84904
:103CD00008600BE0B64BB74A00210120FCF70CFE50
:103CE000A6480068401CA549086000BFA1480068BC
:103CF000012804D0A1480068A1498842EAD39F481E
:103D000000689F49884203D200209C49086008E06F
:103D100000209A49086081490870A7A0FDF70EFCB1
:103D200011E7ABA0FDF70AFC01214902AD48FFF7FE
:103D300061FD0121022001F09FF90022AA49AB4850
:103D400001F096FCFFF784FC3420FFF719FCA8482B
:103D50000068A849086008460168A7A0FDF7EEFBC7
:103D6000A4480068AA49884274D1A1484068A9497A
:103D7000086008460068002808D0084600681E2829
:103D800004D808460168A4A0FDF7D8FBA148006844
:103D9000002860D09F4800681E285CD89D480068B5
:103DA000C20093490831A348FCF7C8F900206849CC
:103DB000087045E066480078C0009E4908589E4952
:103DC000884238D10120FDF741FA3749086008469A
:103DD0000068002800D1B6E65D480078C00095492B
:103DE000401843685A480078C0000A580021012052
:103DF000FCF75EFE0120FDF729FA2B490860084612
:103E00000068002800D19EE60823534A00210120C3
:103E1000FCF74EFE4E480078C000864BC018426842
:103E20004B480078C000195884A0FDF787FB7D201F
:103E3000C000FFF70BFB46480078401C444908705F
:103E400043480078734909688842B3D30020404949
:103E500008704DE19BE1AAE1E8020020100000207B
:103E6000667067612073656C656374203A20256411
:103E70000D0A00002D2D2D2D2D2D2D2D53504920B7
:103E800044454D4F2D2D2D2D2D2D2D2D0D0A00008E
:103E900072656720736574206E756D626572203A75
:103EA0002025640D0A00000008000020667067618C
:103EB000207374617465203A2025640D0A000000A7
:103EC00031363A34363A323100000000417567200D
:103ED0002033203230323200736F6674776172653E
:103EE0002076657273696F6E2025732025732076A6
:103EF000312E310D0A00000074657374206D6F64FB
:103F0000653A2025640D0A00667067612076657247
:103F100073696F6E203A20307825780044000020C5
:103F200030786634303A2025780D0A00FC0700000E
:103F3000206461746120307832303030303030307D
:103F40003A20253878203D3D646174610D0A0000F7
:103F50000300002050000020801120004144433124
:103F600020696E697420636F6D706C6174650D0AF1
:103F70000000000030000020600120002000002030
:103F800020A10700414431205258206973206E6FF0
:103F900074206C6F636B0D0A0000000041443120F7
:103FA0005258206973206C6F636B0D0A000000008B
:103FB0003400002060002000414431205458206922
:103FC00073206E6F74206C6F636B0D0A000000002D
:103FD000414431205458206973206C6F636B0D0A83
:103FE0000000000000040048050105000038014001
:103FF000008000081C00002041443120737461726D
:104000007420206D61726B3A202538780D0A00000B
:10401000403020104800002041443120726567691B
:1040200073746572206E756D6265722069732025E8
:10403000640D0A0060030020084000204144312044
:104040007772697465207265676973746572203A66
:10405000202538782076616C75653A202538780DF2
:104060000A000000FE480078C000FE490858FE49DA
:10407000884238D10120FDF7E9F8FC49086008467C
:104080000068002800D15EE5F5480078C000F549D9
:1040900040184368F2480078C0000A580021012007
:1040A000FCF706FD0120FDF7D1F8F049086008464D
:1040B0000068002800D146E5ED4BEE4A00210120C2
:1040C000FCF7F6FCE6480078C000E64BC0184268F2
:1040D000E3480078C0001958E748FDF72FFA7D2023
:1040E000C000FFF7B3F9DE480078401CDC490870D7
:1040F000DB480078E14909688842B3D30020D849F9
:1041000008703DE0D6480078C000D6490858D64926
:10411000103988422FD0D2480078C000D1490858C1
:10412000D149884227D00120FDF790F8CF49086097
:1041300008460068002800D105E5C9480078C0009D
:10414000C84940184368C6480078C0000A58002192
:104150000120FCF7ADFC0A20FFF778F9C048007891
:10416000C000C04BC0184268BD480078C000195854
:10417000C148FDF7E3F9BA480078401CB849087017
:10418000B7480078BD4909688842BBD30FE0BCA09E
:10419000FDF7D4F9C449C548FFF76CFA0020B749C8
:1041A000086008460168B4482438FDF7C7F9B348E9
:1041B00000681E2808D90020B04908600846016838
:1041C000AD482438FDF7BAF9FFF7E0F9B8A0FDF7DC
:1041D000B5F90022BD49BE4801F04AFAFFF738FAA6
:1041E0003420FFF7CDF91422BA49BB48FBF7A6FFEC
:1041F000FFF7CCF90122B549B54801F039FAB7A06B
:10420000FDF79CF90020964908700CE0944800786E
:104210008000B14A1158B9A0FDF790F99048007894
:10422000401C8F4908708E4800780528EEDBC3E3F8
:10423000B7480078002876D00020B5490870B54806
:104240000079042870D006DC012809D0022826D085
:10425000032823D16AE0512867D05228F9D1EBE234
:10426000F0218048FBF783FF00229849984801F02D
:10427000FFF9FFF7EDF93420FFF782F98B48FFF7DC
:10428000A3F9FFF783F901229049914801F0F0F971
:1042900000207A490860A0A0FDF750F9D8E200227A
:1042A0008A498B4801F0E4F9FFF7D2F93420FFF78F
:1042B00067F97248006800282AD0704800681E28F4
:1042C00026D87A4840689B490860084601686A48D1
:1042D0002438FDF733F900206149087011E0604887
:1042E0000078C0005F4BC01842685D480078C0008D
:1042F00019586148FDF722F959480078401C58497F
:104300000870574800785D4909688842E7D302E0A1
:1043100089A0FDF713F9FFF739F901226B496C48C1
:1043200001F0A6F994E2A1E21EE074E204227949C8
:10433000491D8948FBF702FF0120FCF787FF4B4925
:10434000086008460068002800D152E482486B46A5
:10435000002102680120FCF7CFFA7F4801687FA0A6
:10436000009AFDF7EBF873E20D203D49087022E05A
:1043700068483B490978405C522817D1654938485C
:104380000078401C085C452810D135480078801C16
:10439000085C47280AD132480078C01C085C4A28CB
:1043A00004D175480068401C734908602C480078A7
:1043B000401C2B4908702A4800784828D8DB6E48F2
:1043C00001686EA0FDF7BAF82C4800686A490968D0
:1043D00040181E2807D8294800686749096840180E
:1043E0006C49086002E06CA0FDF7A8F8624800681C
:1043F0000300FDF7CAF8061804080C101418012071
:10440000FEF7E8F80FE00120FEF7DAFB0BE00120F1
:10441000FEF73EFA07E00120FDF728FF03E0012048
:10442000FDF754FD00BF00BF1448016862A0FDF70E
:1044300085F800200A49087001E109480078C000A9
:104440000849085808491039884207D10120FCF76B
:10445000FDFE0649086008460068B9E0EAE0000091
:104460000300002060030020184000200800002006
:1044700008000020801120003C4000084800002077
:1044800041443120746869732069732066697273CE
:10449000742074696D6520777269746520666C613B
:1044A00073680D0A000000004030201000800008F2
:1044B00041443120666C61736820696E69742063C1
:1044C0006F6D706C6174650D0A00000005010500D8
:1044D0000038014000A000084005002064656661C6
:1044E000756C74206672657120696E697420636FE3
:1044F0006D706C6174650D0A000000006465666192
:10450000756C742066726571203A2025640D0A006E
:1045100001000020E802002041443120636C656105
:104520007220666C61736820636F6D706C61746576
:104530000D0A00001C00002041443120666C6173AC
:10454000682068617665206E6F2072656769737494
:1045500065720D0A0000000038030020414431203C
:10456000616464723A2538782C76616C75653A25F9
:1045700038780D0A00000000180000204144312066
:1045800072656720636F756E74203A2025640D0A8A
:1045900000000000140000204144312074686520B0
:1045A000666C61736820737061636520697320664F
:1045B000756C6C0D0A000000414431207265672063
:1045C0006E756D626572203A2025640D0A00000048
:1045D000002800D117E4F9480078C000F8494018D5
:1045E0004368F6480078C0000A5800210120FCF713
:1045F0005FFA0120FCF72AFEF249086008460068CD
:10460000002800D13FE50823EF4A00210120FCF7F4
:104610004FFAEA480078C000E94BC0184268E74802
:104620000078C0001958E948FCF788FF7D20C000D9
:10463000FEF70CFFE1480078401CE0490870DF48B5
:104640000078E3490968884200D2F6E60020DB4999
:10465000087045E0D9480078C000D9490858DD49BC
:10466000884238D10120FCF7F1FDD64908600846A0
:104670000068002800D106E5D0480078C000D04985
:1046800040184368CD480078C0000A580021012036
:10469000FCF70EFA0120FCF7D9FDCA49086008466C
:1046A0000068002800D1EEE4CB4BC74A002101206E
:1046B000FCF7FEF9C1480078C000C14BC018426841
:1046C000BE480078C0001958C048FCF737FF7D206D
:1046D000C000FEF7BBFEB9480078401CB74908701F
:1046E000B6480078BA4909688842B3D30020B34974
:1046F00008703AE0B1480078C000B1490858B5499F
:10470000103988422CD0AD480078C000AC49085818
:10471000B049884224D00120FCF798FDA9490860DF
:1047200008460068002800D1ADE4A4480078C00025
:10473000A34940184368A1480078C0000A580021E6
:104740000120FCF7B5F99D480078C0009C4BC018CB
:1047500042689A480078C00019589C48FCF7EEFE61
:1047600096480078401C954908709448007898490C
:1047700009688842BED399A0FCF7E0FE0022A04958
:10478000A04800F075FFFEF763FF3420FEF7F8FE47
:104790009D48FEF719FF9D499B48FEF76BFF8C482B
:1047A00001689948001DFEF765FF002083490870E5
:1047B00020E0824A1278D200814B99587F4A1278C1
:1047C000521CD200904BD018FEF754FF7B4A12784F
:1047D000D2007B4BD2185168784A1278521CD20012
:1047E000894BD218101DFEF745FF74480078401C15
:1047F0007249087071480078754909688842D8D3B1
:10480000FEF7C4FE01227E497E4800F031FF80A001
:10481000FCF794FE1CE0002087490860874948792E
:1048200000F0A6FB84490860844841798248026808
:1048300083A0FCF783FE0BE0804A9179507900F069
:104840001BFC7E488279417987A0FCF777FE00BF88
:1048500000BF50217948FBF78AFC28218D48FBF7DF
:1048600086FC00208C4908608C4908608C480078E0
:10487000002863D1FCF72EFB8A49087008460078AF
:10488000012808D188A0FCF759FE00208A49087049
:104890008A4908700FE48348007800283BD1884893
:1048A0008268C1681046FBF795FD83490978890045
:1048B000844A505000225249524800F0D9FEFEF777
:1048C000C7FE3420FEF75CFE7F48FEF77DFE002029
:1048D0003A49087010E0394A12789200794B995899
:1048E000364A12789200784BD018FEF7C3FE334850
:1048F0000078401C31490870304800780528EADB10
:10490000FEF744FE01223E493E4800F0B1FE012080
:10491000634908700EE06348007802280AD16648AF
:104920000078401C6449087008460078052801D1C9
:104930000020087065A0FCF701FE3DE069480078A2
:10494000002839D00020674908706748007800289F
:104950000AD06548017865A0FCF7F0FD00206249A7
:1049600008706849087027E000205F4908706548B2
:104970000078401C634908700846017862A0FCF783
:10498000DDFD6048007805280ADD00205D490870DB
:1049900064A0FCF7D3FD0020474908704049087027
:1049A0003F480078002807D00021062000F064FB73
:1049B0000121062000F060FB3AE400000300002023
:1049C0006003002008000020801120003C40000807
:1049D00048000020184000200800002041443120F9
:1049E000646174612070726F6772616D6D657220B1
:1049F00073706920636F6D706C6174650D0A0000DF
:104A000005010500003801400080000840302010FA
:104A100041443120646174612070726F6772616D0E
:104A20006D657220666C61736820636F6D706C6178
:104A300074650D0A0000000024000020E802002038
:104A400066706761207265616420726567203A2034
:104A500025642C6670676120726561642076616CE4
:104A60007565203A20256400667067612077726959
:104A7000746520726567203A2025642C6670676132
:104A80002077726974652076616C7565203A2025FF
:104A900064000000380300201800002014000020EB
:104AA000110000200F00002073796E632074696D7F
:104AB000656F75740D0A0000380000204400002066
:104AC000980200204005002000A000086670676181
:104AD00020737765657020636F6D706C6174650D10
:104AE0000A0000000C0000200E00002066706761C4
:104AF0002073796E6320636F756E74203A2025648D
:104B0000000000000D00002066706761206E6F7469
:104B10002073796E6320636F756E74203A2025646C
:104B20000D0A0000667067612073796E632061670B
:104B300061696E0D0A00000000218278002A27D0EA
:104B4000184A03231B02D21803789B109B00D158EC
:104B500002789207D30EFF229A400B4693431946E0
:104B600042789207120E03789B07DB0E9A4011439E
:104B70000C4A03231B02D21803789B109B00D150D0
:104B80000278D306DB0E01229A40064B1A6007E03A
:104B90000278D306DB0E01229A40024B80331A6062
:104BA0007047000000E100E030B597B005460024F2
:104BB000182110A8FBF7DBFA072408E0204600F0D4
:104BC000D7F9E11F890004AA5050601CC4B2132C0D
:104BD000F4DB002418E0200104A90958A000401CBF
:104BE000800004AA10580918A000801C80001058EA
:104BF0000918A000C01C8000105808188008A100E7
:104C000001AA5050601CC4B2032CE4DB00240DE068
:104C1000A00001A908581499884205D9A00001A94B
:104C20000858149010A80470601CC4B2032CEFDB69
:104C3000182210A92846FBF781FA17B030BD0000F2
:104C4000002905D0054A52690243044B5A6104E029
:104C5000024A52698243014B5A6170470010024078
:104C6000002905D0054AD2690243044BDA6104E009
:104C7000024AD2698243014BDA6170470010024058
:104C8000002905D0054A12690243044B1A6104E069
:104C9000024A12698243014B1A61704700100240B8
:104CA000002905D0054A92690243044B9A6104E049
:104CB000024A92698243014B9A6170470010024098
:104CC000002905D0054AD2680243044BDA6004E0AB
:104CD000024AD2688243014BDA60704700100240FA
:104CE000FEB5044600250020029000270026019012
:104CF0000090774840680C2108400546002D04D0FC
:104D0000042D05D0082D2BD105E0724820602AE043
:104D10007048206027E06E4840680F2189040840F1
:104D200006466B4840680321C90308400190B00C57
:104D3000861C0198002804D13046674948430090FA
:104D40000BE06348C06A0007000F401C02906148F6
:104D50000299FBF7C9F9704300900098206002E0C7
:104D60005C48206000BF00BF59484068F0210840FF
:104D700005462D095948475D2068F8406060544851
:104D8000406807210902084005462D0A5348475D3F
:104D90006068F840A0604E48006BFF210131084078
:104DA000884202D04E48E0600DE049484068012149
:104DB00089030840884203D0A0684008E06002E010
:104DC000A0688008E0604248006B1021084010286D
:104DD00002D04048606101E0206860613C48006B9F
:104DE0008007800F002802D1A068A06119E0384830
:104DF000006B8007800F012802D12068A06110E0BD
:104E00003348006B8007800F022802D18003A06125
:104E100007E02F48006B8007800F032801D12D4841
:104E2000A0612B48006B032109040840002802D12F
:104E3000A068E06120E02648006B032109040840D7
:104E400001210904884202D12068E06114E0204871
:104E5000006B03210904084001214904884202D162
:104E60008010E06108E01A48006B03210904084043
:104E7000884201D11748E0611548006B032189047D
:104E80000840002802D1A068206220E01048006B92
:104E900003218904084001218904884202D1206845
:104EA000206214E00A48006B0321890408400121B4
:104EB000C904884202D10011206208E00448006B56
:104EC000032189040840884201D102482062FEBDC6
:104ED0000010024000127A0000093D00D4020020B8
:104EE000809FD5001CB501214804FFF7A9FE0121D0
:104EF0008804FFF7A5FEA0200090012168460171FB
:104F00000321417100218171C17169460920C006E8
:104F1000FEF7D6FC40200090002168460171032175
:104F200041710021C17169460920C006FEF7C8FC25
:104F30001020009001216846017103214171002178
:104F400081710121C17169460920C006FEF7B8FCD4
:104F500010210920C006FEF74DFC20210920C006C3
:104F6000FEF746FC80210920C006FEF741FC1CBD6F
:104F700070B50546002400260121C9023D48FEF710
:104F800037FC20210920C006FEF734FC00BF00BF1B
:104F900010210920C006FEF72BFC20210920C006A5
:104FA000FEF726FC80210920C006FEF723FC00BF87
:104FB00000BF20210920C006FEF71CFC00BF00BF77
:104FC00000241FE020210920C006FEF711FC40202C
:104FD00020412840002805D080210920C006FEF786
:104FE00009FC04E080210920C006FEF701FC00BF97
:104FF00000BF20210920C006FEF7FCFB00BF00BF58
:10500000601CC4B2072CDDDB00241BE0202109203A
:10501000C006FEF7EDFB00BF00BF20210920C0063F
:10502000FEF7E8FB40210920C006FEF791FC0028AE
:1050300004D01720011B01208840064300BF00BF99
:10504000601CC4B2182CE1DB10210920C006FEF759
:10505000D1FB20210920C006FEF7CAFB80210920D0
:10506000C006FEF7C5FB00BF00BF00BF00BF304653
:1050700070BD00000004004870B505460E460024CF
:105080000121C9023F48FEF7B3FB20210920C006D9
:10509000FEF7B0FB00BF00BF10210920C006FEF7DD
:1050A000A7FB20210920C006FEF7A2FB80210920D2
:1050B000C006FEF79DFB00BF00BF20210920C006EF
:1050C000FEF798FB00BF00BF00241FE0202109204D
:1050D000C006FEF78DFB402020412840002805D067
:1050E00080210920C006FEF785FB04E0802109200D
:1050F000C006FEF77DFB00BF00BF20210920C006CF
:10510000FEF778FB00BF00BF601CC4B2072CDDDBDC
:10511000002420E020210920C006FEF769FB0120C1
:10512000C00520413040002805D080210920C0065C
:10513000FEF760FB04E080210920C006FEF758FB63
:1051400000BF00BF20210920C006FEF753FB00BFAF
:1051500000BF601CC4B2182CDCDB10210920C00683
:10516000FEF748FB20210920C006FEF741FB802105
:105170000920C006FEF73CFB00BF00BF00BF00BF18
:1051800070BD00000004004830B500228B071C0FE2
:105190000F23A3401A460B4B8C10A4001B599343BA
:1051A000084C8D10AD00635123468C10A4001B5990
:1051B0008C07250F0446AC402343024C8D10AD00F4
:1051C000635130BD08000140002904D0028801234A
:1051D0001A43028003E00288014B1A4002807047A4
:1051E000FEFF0000002A03D083890B43838102E085
:1051F00083898B4383817047CA430282704730B5ED
:105200000246002000230024158A0D402B46958974
:105210000D402C46002B03D0002C01D0012000E0D3
:10522000002030BD01858282704700000022028884
:10523000184B984206D001239B07984202D0164B88
:10524000984203D1154B1A404B881A43144B98428D
:1052500003D0144B1A400B891A4302804B68C36277
:105260000B8803850B4B984208D00F4B984205D012
:105270000E4B984202D00E4B984208D14B88102B0F
:1052800003D18B7A5B1C038601E08B7A03860123B2
:1052900083827047002C0140000400408FFF000013
:1052A00000100040FFFC00000040014000440140AD
:1052B000004801401FB5002401210220FFF7D0FC67
:1052C0007D21490214480068FAF70EFF401E84B29F
:1052D000124802900021684681808181C18001A925
:1052E0000F48FFF7A3FF012221460D48FFF79AFF61
:1052F0001021684601700021417001218170FFF783
:105300001BFC012211460648FFF76CFF01210448EF
:10531000FFF75AFF1FBD0000C0020020FFFF000082
:105320000004004004480068002804D002480068D7
:10533000401E014908607047B002002000B589B0E6
:1053400001214804FFF77CFC01214804FFF788FC99
:1053500001218803FFF7A4FC012202210920C006D5
:10536000FEF700FB012203210920C006FEF7FAFA2E
:1053700001220921C806FEF7F5FA01220A210920B7
:10538000C006FEF7EFFA0C2000900221684601717A
:105390000121417100218171C17169460920C00656
:1053A000FEF78EFA03204002009002216846017148
:1053B0000121417100218171C17169460920C00636
:1053C000FEF77EFA1D4800F049F8E1204002039004
:1053D000002004900590069008900C20079003A9E7
:1053E000164800F0C9F8164800F038F8E1204002ED
:1053F0000390002004900590069008900C200790E0
:1054000003A90F4800F0B8F81B216846017200217B
:1054100041720121817202A8FFF78EFB012107482A
:1054200000F094F80121064800F090F801220549A7
:10543000024800F01DF909B000BD0000003801402D
:1054400000440040050105000146888CC005C00DE0
:105450007047CA05D20D02857047000010B504469A
:105460003248844209D101218803FFF729FC002139
:1054700001208003FFF724FC56E02D48844209D127
:1054800001214804FFF7FCFB002101204004FFF745
:10549000F7FB49E02748844209D101218804FFF73E
:1054A000EFFB002101208004FFF7EAFB3CE02248EB
:1054B000844209D10121C804FFF7E2FB0021012049
:1054C000C004FFF7DDFB2FE01C48844209D1012115
:1054D0000805FFF7D5FB002101200005FFF7D0FBF1
:1054E00022E01748844208D101212020FFF7E8FB81
:1054F00000212020FFF7E4FB16E01248844208D187
:1055000001214020FFF7DCFB00214020FFF7D8FB02
:105510000AE00D48844207D101218020FFF7D0FB2B
:1055200000218020FFF7CCFB10BD000000380140B7
:105530000044004000480040004C00400050004043
:105540000014014000180140001C0140002904D053
:10555000026801231A43026003E002685208520005
:105560000260704702460020D3690B40002B01D037
:10557000012000E000207047F0B58BB004460D46D6
:10558000002700200A900026206840084000206084
:10559000666803210903304688430646A868064327
:1055A000666026682D480640E968686808432969EE
:1055B000084306432660A668032109023046884353
:1055C000064668690643A6606846FFF789FB2448DB
:1055D000844202D106980A900DE02248844202D10A
:1055E00007980A9007E02048844202D108980A9060
:1055F00001E002980A9020680121C90308400028B0
:105600000CD029680A9A5000FAF76EFD07462968FF
:105610000A9A5000FAF768FD0E4609E029680A98D0
:10562000FAF762FD074629680A98FAF75DFD0E460B
:1056300028684008B04200D87F1C20680121C903B7
:105640000840002806D03807460F3846074908406A
:1056500030430746A7810BB0F0BD0000F3E9FFFF20
:10566000003801400044004000480040F0FF0000C6
:10567000F8B50346002400260096002500201846B1
:105680000E04340ECEB200960127009EB7403D4670
:10569000022C01D1001D02E0032C00D10830002AA9
:1056A00003D006682E43066002E00668AE4306603B
:1056B000F8BD70B502460B460024002100250020ED
:1056C0001E04350ED9B201268E403146012D02D17D
:1056D0001668314006E0022D02D15668314001E0E3
:1056E000966831401C0C0126A6403446D6693440E9
:1056F000002903D0002C01D0012000E0002070BD63
:105700002057000800000020E802000014070008ED
:1057100028580008E8020020A8060000B615000876
:105720000151124013200512023A040812051A28EA
:1057300008232F801A30081119081A08081460E38A
:10574000161480112012011E22228410202EE15AEC
:105750000104291829045A03045A04045A05045A56
:1057600006045A07045A08045A09045A0A045A0B30
:10577000045A0C045A0D045A0E045A0F04296E3AA6
:10578000107C12023A110E12023A127C12023A13E3
:105790007C12023A147C12023A157C12023A167CF0
:1057A00012024A173F112A18401908321914FFFF34
:1057B0000F2AFF1019CD1A08616A83E019104AFCFC
:1057C00071B91029F4691059917910DA1C201A2046
:1057D000108BD0FC101A04108B4147101A40109AFD
:1057E00003302910A940091E80DBFC07201910791D
:1057F00020318CB002202031CB940410AAD410198F
:10580000111A08606AC31022FF5AFF010124C5E87B
:105810008544417AA005317C6CDC0268680802038B
:0858200004060708090CA91099
:04000005080000B936
:00000001FF
